:020000040800F2
:1080000008AF01205D820008D7830008BD83000807
:10801000D5830008ED820008918900080000000067
:108020000000000000000000000000009D8100082A
:10803000EF82000800000000F9810008DD850008DB
:10804000778200087782000877820008778200082C
:10805000778200087782000877820008778200081C
:10806000778200087782000877820008778200080C
:1080700077820008778200087782000877820008FC
:1080800077820008778200087782000877820008EC
:1080900077820008778200087782000877820008DC
:1080A00077820008778200087782000877820008CC
:1080B00077820008778200087782000877820008BC
:1080C00077820008778200087782000877820008AC
:1080D00077820008658600081D870008F58700087C
:1080E000778200087782000877820008778200088C
:1080F000778200087782000877820008778200087C
:10810000778200087782000877820008778200086B
:10811000778200087782000877820008778200085B
:10812000778200087782000877820008778200084B
:10813000778200087782000877820008778200083B
:10814000778200087782000877820008778200082B
:10815000778200087782000877820008778200081B
:10816000778200087782000877820008778200080B
:1081700077820008778200087782000877820008FB
:108180007782000877820008DFF80CD000F09CF8B6
:1081900000480047E58A000808AF01202C4B196809
:1081A0000868B0E8F04F80F30988BFF36F8F4FF095
:1081B000000080F311887047000000000848006844
:1081C000006880F308884FF0000080F3148862B6DE
:1081D00061B6BFF34F8FBFF36F8F00DF00BF00BFEB
:1081E00008ED00E0DFF80C00016841F47001016067
:1081F000704700BF88ED00E0EFF30980BFF36F8F99
:10820000134B1A681EF0100F08BF20ED108A20E9EA
:10821000F04F106009B44FF0500080F31188BFF3A5
:108220004F8FBFF36F8F01F07FFB4FF0000080F3A3
:10823000118809BC19680868B0E8F04F1EF0100FEB
:1082400008BFB0EC108A80F30988BFF36F8F7047C6
:1082500050000020EFF3058070470000064880477B
:1082600006480047FEE7FEE7FEE7FEE7FEE7FEE71B
:10827000FEE7FEE7FEE7FEE70986000889810008C1
:1082800040EA01039B0703D009E008C9121F08C098
:10829000042AFAD203E011F8013B00F8013B521E18
:1082A000F9D27047D2B201E000F8012B491EFBD28F
:1082B00070470022F6E710B513460A4604461946F1
:1082C000FFF7F0FF204610BD064C074D06E0E068C2
:1082D00040F0010394E8070098471034AC42F6D30D
:1082E000FFF756FF10A3000830A30008FEE7704711
:1082F000F0B50023012403270D6804FA03F21540AA
:10830000954242D1D0F800C05E0007FA06F52CEA8B
:10831000050CC0F800C091F804C0D0F800E00CFAD9
:1083200006FC4CEA0E0CC0F800C091F804C0BCF189
:10833000010F02D0BCF1020F1FD1D0F808C02CEA07
:10834000050CC0F808C091F805C0D0F808E00CFA98
:1083500006FC4CEA0E0CC0F808C0D0F804C02CEAA9
:10836000020CC0F804C0426891F806C00CFA03FC85
:108370001FFA8CFC42EA0C024260C268AA43C26047
:10838000CA79C568B2402A43C2605B1C102BB3D3C4
:10839000F0BD4B07DB0E9A40C90810B500EB810019
:1083A000016A0F249C40A1430162016A11430162EA
:1083B00010BD0AB10183704741837047FEE700F0AA
:1083C00001B8000002494AF6AA2008607047000080
:1083D00000300040FEE7704730B50F22C4780178C6
:1083E0000123FCB1144C246801F1E02104F4E064A1
:1083F000C4F5E064C4F30724C4F10405E240447802
:10840000AC408578154025432A0181F80024007886
:1084100000F01F018B404009800000F1E020C0F80F
:10842000003130BD01F01F0083404809800000F199
:10843000E020C0F8803130BD0CED00E00249084377
:1084400002490860704700000000FA050CED00E0EA
:10845000044A0029116801D0014300E08143116002
:108460007047000030380240044A0029116801D0EA
:10847000014300E08143116070470000443802402E
:1084800070B5204A1168204C11F00C0104D0661020
:10849000042903D0082903D004601BE0066019E01A
:1084A0001849091F0B68C3F380550B6803F03F039D
:1084B00015B1B6FBF3F301E0B4FBF3F30C68096804
:1084C000C4F388146343C1F30141491C4900B3FB61
:1084D000F1F1016011680F2303EA11110B4B5C5C91
:1084E0000168E14041601468072505EA94241C5D99
:1084F00021FA04F48460126805EA52329A5CD14091
:10850000C16070BD083802400024F4004000002023
:108510000CB500202749019000900A6842F480328F
:108520000A604FF4A0430A6802F400320092019AF4
:10853000521C0192009A12B9019A9A42F3D10A6828
:10854000920334D5012000901A484030026842F06E
:10855000805202601848026842F4404202601548A6
:10856000083002680260026842F400420260026859
:1085700042F4A0520260031F104A1A600A6842F0D7
:1085800080720A600A689201FCD50D4A40F20571BA
:108590001160016821F003010160016841F00201EE
:1085A00001600168C1F381010229FAD10CBD00907C
:1085B0000CBD000000380240007000400854400725
:1085C000003C02404FF0E0210428086903D020F06D
:1085D00004000861704740F00400FAE710B550202D
:1085E00080F31188BFF34F8FBFF36F8F01F0F0FC62
:1085F00018B104494FF080500860002080F31188C2
:1086000010BD000004ED00E0114810B5016841F410
:10861000700101600F48016841F0010101600D4ADD
:1086200000210832116002680B4B1A400260031DE2
:108630000A4A1A60026822F48022026005480C305F
:108640000160FFF765FF024905488039086010BDE9
:1086500088ED00E000380240FFFFF6FE10300024F5
:108660000080000870B5234C40F22551204600F0F0
:10867000FEF800281BD0204600F086F9C3B21E4841
:108680000021422B027802D0012A05D006E0012AFF
:1086900004D00122027002E0742B09D0017082889C
:1086A000140404D4540416D50A2B11D0818070BD53
:1086B00012A000F06FF9BFF34F8F15480168154AFB
:1086C00001F4E06111430160BFF34F8F00BFFDE78C
:1086D00042F40041EAE70D2B09D0C2F30D040E4D20
:1086E000521C92B22B558280C72ADFD870BD42F44B
:1086F0008041DBE700100140180000204A756D70D2
:1087000020746F20426F6F7421210D0A0000000059
:108710000CED00E00400FA05D000002010B5334C49
:1087200040F22551204600F0A2F800285DD02046F6
:1087300000F02AF9C1B200235F222D48452943D019
:108740000EDCA1F1250111294AD2DFE801F0312E1A
:108750002B2825494949494949161A1C1F2123003C
:10876000463910293CD2DFE801F02D2B28263B3B6F
:108770003B3B3B3B0A3133353739836032E0C260E3
:1087800030E00A2100E0142181602BE01E21FBE78C
:108790002821F9E73221F7E76FF00901F4E76FF0DC
:1087A0001301F1E76FF01D01EEE76FF02701EBE732
:1087B0006FF03101E8E7592100E05321C16011E079
:1087C0004D21FBE74721F9E74121F7E76521F5E76F
:1087D0006B21F3E77121F1E77721EFE77D21EDE7E9
:1087E000C0E90232C1680839C16010BD00440040D0
:1087F0001800002070B5144D40F22551284600F0B5
:1088000036F8D0B1284600F0BFF8114C02460F48A8
:108810006178425411B90078552814D1491CC8B266
:1088200060700B2809D109490B22A1F13400FFF730
:1088300027FD002060700120A0702846BDE8704030
:10884000402100F007B870BD00480040CC01002076
:1088500018000020C943018070470029818902D097
:1088600041F4005101E021F400518181704730B59D
:1088700001F01F0201240025C1F3421304FA02F2A1
:10888000012B0FD0022B0FD0838A4FEA11210088D1
:10889000134204FA01F400EA040001D000B10125FA
:1088A000284630BD8389F0E7038AEEE710B5C1F3AF
:1088B000421301F01F040121A140012B07D0022B1C
:1088C00007D01430002A026805D00A4304E00C30B7
:1088D000F8E71030F6E78A43026010BD7FB5044622
:1088E000008A0D4620F44051E88808432082A08980
:1088F00041F20C618843A9882A8911436A8902439D
:108900001143A181A08A20F44071A8890843A08264
:108910006846FFF7B5FD1A48844202D019488442E0
:1089200001D1039800E00298A189090400EBC0017D
:1089300001EB0010296801D5490000E08900B0FB77
:10894000F1F26420B2FBF0F109010B096FF0180598
:108950006B4302EB8302A3891D044FF0320306D55B
:1089600003EBC202B2FBF0F000F0070005E003EBFE
:108970000212B2FBF0F000F00F00084320817FBD2F
:1089800000100140001401408088C0F308007047C7
:10899000FEE70000014A024900F013B84D8A0008C2
:1089A0002800002002E008C8121F08C1002AFAD1DE
:1089B00070477047002001E001C1121F002AFBD15F
:1089C00070472DE9F04116460F460446002503E0A6
:1089D0003946B047641C6D1C20780028F8D1284621
:1089E000BDE8F0811CB505490120CDE90001002357
:1089F000802203A1054801F0ABFA1CBD2C00002029
:108A000073746172745F7461736B00007D9300080E
:108A100010B56FF00400FFF7D5FD0948094900685B
:108A2000B0FBF1F0C1B2084801EB41020170C2EBAA
:108A3000C1114FF6FF7202EAC101418010BD000072
:108A40000000002000127A001400002003490A8868
:108A50005206FCD5C2B28A80704700000010014067
:108A6000142000F063FEFBE71CB501210420FFF792
:108A7000EFFC4FF44050009001208DF804000021DD
:108A80008DF806108DF807008DF80510694604482A
:108A9000FFF72EFCBDE81C40012000F003B80000E9
:108AA00000080240064B4FF4005128B1012805D1BF
:108AB00001221846FFF77DBC0022FAE7704700004C
:108AC000000802404FF4FA740020FFF7EBFF204645
:108AD00000F02CFE0120FFF7E5FF204600F026FE07
:108AE000F2E700004FF4A060FFF7A8FCFFF790FF4B
:108AF0004FF4E13000F0A2FCFFF7B6FF05A0FFF74E
:108B000049FF05A0FFF746FFFFF76CFF00F0CCFE22
:108B1000FEE700000D0A0000415050D4CBD0D04FEA
:108B20004B210D0A000000002DE9F041184C0F46C2
:108B30000546E6682068001D00F0DAFC38B92068B8
:108B400090F82C1001208840216981432161681C24
:108B500007D137B12168BDE8F0410E48091D00F08A
:108B600000BD20683544B5424560216805D2E06B00
:108B7000BDE8F041091D00F0DCBCA06B091D00F050
:108B8000D8FCA06A854200D2A562BDE8F081000051
:108B900050000020CC0200202DE9F041054600F0F5
:108BA000EDFC2E4CA068401CA06020682C4F10B13A
:108BB000606940B32DE02560A068012829D1002616
:108BC00006EB860007EB800000F0A5FC761C052E66
:108BD000F6D32348643000F09EFC2148783000F042
:108BE0009AFC1F488C3000F096FC1D48A03000F025
:108BF00092FC1B48B43000F08EFC19486430A0632E
:108C00001430E06305E02068E96AC06A884200D851
:108C10002560606A401C60622864E96A012022695C
:108C200088401043206101EB810007EB8000291D83
:108C300000F097FC00F0C2FC606900280CD02068AE
:108C4000E96AC06A884207D206494FF0805008603E
:108C5000BFF34F8FBFF36F8FBDE8F081500000204E
:108C60001802002004ED00E010B500F087FC0E4C67
:108C70002068A0B90D4800F04EFC0C48143000F0FC
:108C80004AFC0A48E0601430206100220C210A20CE
:108C900000F0F2FE206010B105A100F011FDBDE86A
:108CA000104000F08BBC000090000020E00200208B
:108CB000546D72510000000030B4026C0B46002A63
:108CC0000BD0C1681144C1608468A14201D301681E
:108CD000C16030BC1846FFF7D3BA30BC70472DE9ED
:108CE000F041856B174604460026026C82B1C7B17D
:108CF000E068FFF7C5FAE168206C091AE1602268B4
:108D0000914202D2A168081AE060022F16D017E043
:108D10002068A8B9A06801F0C1F906460020A0604B
:108D20000EE06068FFF7ACFA216C60680844606090
:108D3000A168884204D32068606001E005B16D1E1F
:108D40006D1CA5633046BDE8F08110B50446006B8C
:108D500000F048FC2046BDE8104000F043BC000095
:108D600010484FF49631420706D0C01D0D4920F03F
:108D70000700411AC1F596310B4A00230144C2E9AC
:108D800000030839183A21F0070111604B600B60AD
:108D90000B1AC0E9001393604FF00040536050611C
:108DA0007047000008030020BC000020144E154C42
:108DB000A6F1A0074FF08058DFF84C9012E000BFFA
:108DC00000F0DCFBF068C568281D00F091FBA0688E
:108DD000401EA0606068401E606000F0EFFB284607
:108DE000FFF7B3FF60680028EAD138680128F9D995
:108DF000C9F80080BFF34F8FBFF36F8FF2E7000019
:108E0000B80200205000002004ED00E02DE9F05FE2
:108E10008846DDE90B941546834691009A460A9EE2
:108E2000A522206BFFF73EFA6FF00301206B01EBE8
:108E30008501084420F00707780707D0502080F309
:108E40001188BFF34F8FBFF36F8FFEE70025B8F196
:108E5000000F0FD05FF00000221818F8001082F801
:108E6000341018F8001011B1401C0A28F4D384F80B
:108E70003D5001E084F83450052E00D30426E6620C
:108E8000C4E91265201D00F051FB04F1180000F048
:108E90004DFB2461C6F105006462A061256584F87C
:108EA000545052465946384600F052FA2060B9F103
:108EB000000F01D0C9F80040BDE8F09F30B511495E
:108EC00000E011460A688242FBD34B685C1884427A
:108ED00003D1406818444860084643681C1894420F
:108EE00009D1084C183C2468A24209D052681A449F
:108EF00042600A6812680260814200D0086030BD9A
:108F00000460F9E7BC00002070B5002441600B4DFF
:108F10000061914206D8D11A8269914206D2011DA0
:108F2000286907E09A4203D2994201D3012403E061
:108F3000011DE86800F0FDFA204670BD9000002099
:108F400010B5044600F01AFBA06B28B15FF00004D6
:108F500000F034FB204610BD0124F9E730B587B09E
:108F6000394D67E00498002864DB069C606910B105
:108F7000201D00F0BDFA03A800F0D6F802460498C0
:108F80000A2857D2DFE800F00505052D334A05050C
:108F90002D3394F8280040F0010084F8280005994A
:108FA000A069059B01442046FFF7AEFF68B3216A24
:108FB0002046884794F8280040073BD500200090C1
:108FC0000598A169002342181946204601F070F95E
:108FD000D8B9502080F31188BFF34F8FBFF36F8F44
:108FE000FEE714F8280F20F00100207022E094F82A
:108FF000280040F0010084F828000598A06128B1FD
:10900000811813462046FFF77FFF13E0502080F3BE
:109010001188BFF34F8FBFF36F8FFEE794F82800DE
:10902000810703D4204600F0DDFA03E020F00100C0
:1090300084F82800002204A9286800F0AFFE002868
:1090400090D107B030BD0000900000202DE9FC4118
:109050000F46054600F060FC01A800F065F80446E4
:10906000019818B101F09CF8BDE8FC81254EAFB124
:1090700030690068D0B30027291B3A46306800F0F9
:1090800033FB01F08DF80028EED11F494FF08050DE
:109090000860BFF34F8FBFF36F8FE5E7A542EBD8B2
:1090A00001F07EF8F0682746C068C468201D00F013
:1090B0001FFA94F82800410719D5A0692B464119D9
:1090C0003A462046FFF720FFA8B10020034601469C
:1090D00000902A46204601F0EBF860B9502080F35A
:1090E0001188BFF34F8FBFF36F8FFEE707E020F0CB
:1090F000010084F82800216A20468847B4E7012748
:10910000BAE700009000002004ED00E00548816B04
:10911000096821B1816BC9680968816270474FF0A5
:10912000FF31FAE75000002070B5054600F04AFF15
:10913000064E0446B068844203D200F009F80120CC
:1091400000E0002028602046B46070BD9000002040
:10915000F8B5194D20E0C068C4680668201D00F00D
:10916000C7F9216A2046884794F82800400713D59C
:10917000A0693044B04206D924616060211DE868CE
:1091800000F0D7F908E0002003460146009032467F
:10919000204601F08DF838B1E86801680029DAD17D
:1091A0002969C5E90310F8BD502080F31188BFF389
:1091B0004F8FBFF36F8FFEE7900000200848406894
:1091C000401C4FF0500080F3118804D0BFF34F8F44
:1091D000BFF36F8FFEE7BFF34F8FBFF36F8FFEE7D5
:1091E000C4000020074CE068016841B1C06800215C
:1091F000D0F80000FFF72AFFFFF7B0FEF3E70121E8
:109200000020F7E7900000202DE9F041044600F02F
:10921000B5F994F9455004F1240609E0606A48B1B3
:10922000304600F083FF08B100F004FB6D1E6DB204
:10923000002DF3DC4FF0FF3684F8456000F0BEF9F6
:1092400000F09CF994F9445004F1100709E02069FA
:1092500048B1384600F06AFF08B100F0EBFA6D1E25
:109260006DB2002DF3DC84F84460BDE8F04100F0FD
:10927000A5B900002DE9F0410546002700F04CFBA0
:10928000324E306808B9FFF76BFD706905424ED168
:10929000C5B3083568070ED005F00700C0F1080017
:1092A0000544680707D0502080F31188BFF34F8F23
:1092B000BFF36F8FFEE72DB37068854237D8234820
:1092C000183001460C6801E020460C466168A9424E
:1092D00002D221680029F7D131688C4227D0076873
:1092E0002168016060680837411B10290FD9601997
:1092F000420708D0502080F31188BFF34F8FBFF38F
:109300006F8FFEE713E041606560FFF7D7FD61688E
:109310007068401A7060B268904200D2B0607069A4
:1093200001430020C4E90001F068401CF06000F037
:1093300037FF780707D0502080F31188BFF34F8F95
:10934000BFF36F8FFEE73846BDE8F081A400002030
:1093500010B5031F4FF080741C601B1F21F001012A
:109360001960191F044B0B6014390A60091F6FF054
:10937000020244380A6010BDBD9100081CB500F01F
:10938000FDF81A490220CDE900010023802218A12E
:109390001A4800F0DDFD15490320091DCDE9000143
:1093A00000234FF4807216A1184800F0D1FD0F4938
:1093B00004200831CDE900010023802214A11748C0
:1093C00000F0C6FD094905200C31CDE9000100235C
:1093D000802213A1154800F0BBFD0448001F00685F
:1093E00000F0CAF9BDE81C4000F0E8B830000020E9
:1093F0006C65645F7461736B00000000C58A0008CF
:1094000075736172745F7461736B0000E994000896
:1094100074696D65725F7461736B0000319400084C
:109420006B65795F7461736B00000000618A0008EE
:10943000052000F07BF9FEF7C2FFF9E7F0B506461C
:10944000012187B00846FFF703F801211020FFF73C
:109450000BF8234F072209213846FEF79AFF07220F
:109460000A213846FEF795FF4FF4C06004900220B1
:109470008DF814008DF8150000248DF81640012594
:109480008DF8175004A93846FEF732FFADF80440B6
:10949000ADF80640ADF80840ADF80C400C20114C7A
:1094A000ADF80A00009669462046FFF717FA012139
:1094B0002046FFF7D2F9012240F225512046FFF75E
:1094C000F5F925208DF8180003208DF819008DF886
:1094D0001A008DF81B5006A8FEF77EFF07B0F0BDFE
:1094E0000000024000100140642000F01FF9FBE77B
:1094F000D0E9013201699A60D0E901235A604A68D3
:10950000824201D182684A60002202610868401EDE
:1095100008600868704700F108014FF0FF32C0E9A9
:109520000112C160016100210160704700210161E9
:10953000704730B50B685A1C02D000F1080202E0F7
:10954000026904E02246546825689D42FAD95368AE
:109550004B6099608A60516008610168491C016034
:1095600030BD42684A6093688B609368596091602F
:1095700008610168491C016070470000502080F3B9
:109580001188BFF34F8FBFF36F8F0A494868401CA3
:10959000486001280CD10848006810F0FF0F07D080
:1095A000502080F31188BFF34F8FBFF36F8FFEE71A
:1095B00070470000C400002004ED00E0084948683E
:1095C00028B1401E486001D180F3118870475020B7
:1095D00080F31188BFF34F8FBFF36F8FFEE700005A
:1095E000C400002070B500282AD0164DA0F1080450
:1095F00060686969084207D1502080F31188BFF381
:109600004F8FBFF36F8FFEE722683AB1502080F38F
:109610001188BFF34F8FBFF36F8FFEE78843606001
:1096200000F07AF960686968084468602046FFF7CE
:1096300045FC2869401C2861BDE8704000F0B0BDC1
:1096400070BD0000A40000204FF0E0200021016167
:10965000816105494FF47A720968B1FBF2F1491E44
:1096600041610721016170470000002010B5FEF73D
:10967000F1FD114910280ED300F1E02090F8F0031D
:109680000A78904207D2502080F31188BFF34F8FA1
:10969000BFF36F8FFEE709480068896800F4E06057
:1096A000884207D9502080F31188BFF34F8FBFF352
:1096B0006F8FFEE710BD0000C40000200CED00E03D
:1096C00010B5084B002200BF53F832401CB1521CA9
:1096D000082AF9D310BD43F8321003EBC2014860E9
:1096E00010BD0000D801002070B515460E46044696
:1096F000FFF744FF94F944100020491C01D184F87D
:10970000440094F94510491C01D184F84500FFF745
:1097100055FFA06B28B92A46314604F1240000F019
:10972000A7F82046BDE87040FFF76EBD10B50200F7
:1097300014D00F48406B38B1502080F31188BFF32C
:109740004F8FBFF36F8FFEE700F0E6F80021104661
:10975000FFF7EAF900F024FD002807D105494FF092
:1097600080500860BFF34F8FBFF36F8F10BD0000B4
:109770005000002004ED00E070B50546FFF7FEFE46
:10978000254C05B92568281DFFF7B2FE58B9E86ACF
:10979000224A00EB800152F8211021B901218140B9
:1097A000206988432061A86A18B105F11800FFF705
:1097B0009FFE606A401C60622068854208D117489D
:1097C000291DA030FFF7CDFE6068401C606007E0F7
:1097D000A068401EA0602846FFF7B7FAFFF796FC86
:1097E000FFF7ECFE6069002814D02068854211D193
:1097F000606B38B1502080F31188BFF34F8FBFF3F7
:109800006F8FFEE706494FF080500860BFF34F8F1F
:10981000BFF36F8F70BD00005000002018020020C1
:1098200004ED00E002490A6A0260C96841607047BD
:109830005000002001490120C861704750000020FD
:1098400010B50C4650B1094909681831FFF771FE8F
:109850002046BDE810400121FFF766B9502080F393
:109860001188BFF34F8FBFF36F8FFEE750000020CA
:1098700070B514460D4668B10A4909681831FFF7FA
:1098800070FE0CB14FF0FF3521462846BDE8704010
:10989000FFF74AB9502080F31188BFF34F8FBFF311
:1098A0006F8FFEE7500000207CB517480025CDE9FA
:1098B00000502B46822215A1164800F049FB124C9D
:1098C0002C3C012803D100F0CDFC012802D0401C23
:1098D00011D00EE0502080F31188BFF34F8FBFF3FB
:1098E0006F8F4FF0FF30A06201206061E56000F0F3
:1098F00049F8206B7CBD502080F31188BFF34F8F57
:10990000BFF36F8FFEE700007C00002049444C4508
:1099100000000000AD8D00080248416B491C416306
:1099200070470000500000201448416B11B1012124
:10993000C16170470021C1610169B1FA81F1C1F1D2
:109940001F0101EB81020E4951F822306BB101EB8E
:10995000820101F108034A6852684A609A4201D1C3
:1099600052684A60D16801607047502080F31188C6
:10997000BFF34F8FBFF36F8FFEE700005000002052
:10998000180200201CB537480168374A914207D1B8
:10999000502080F31188BFF34F8FBFF36F8FFEE726
:1099A00000683149491E884207D1502080F3118850
:1099B000BFF34F8FBFF36F8FFEE72C4908780190FC
:1099C000FF20087008788DF800009DF800009DF8D1
:1099D000002000F0F000904207D0502080F3118862
:1099E000BFF34F8FBFF36F8FFEE79DF80000204C51
:1099F00000F0500020700720A06005E09DF80020D6
:109A000052008DF80020401E9DF800201206F5D46B
:109A1000A060032807D0502080F31188BFF34F8F38
:109A2000BFF36F8FFEE74FF44070A060019808709D
:109A30000C482030016841F470010160016841F078
:109A400070410160FFF700FE00206060FEF7CAFB76
:109A50000848016841F040410160FEF7AFFB00207B
:109A60001CBD000000ED00E071C20F4100E400E009
:109A7000C400002034EF00E02DE9F04117460E4607
:109A800005000ED005FB06F09EB1B0FBF6F1A94231
:109A90000FD0502080F31188BFF34F8FBFF36F8F2B
:109AA000FEE7502080F31188BFF34F8FBFF36F8F15
:109AB000FEE75030FFF7DEFB04000CD004F150004D
:109AC0005EB12060C4E90F562046012100F008F87D
:109AD000204684F84C70BDE8F0812460F2E7000075
:109AE00070B50D46040025D0FFF748FDD4E90F20DE
:109AF000216802FB0011A1600021A163216861605F
:109B00000A46D4E90F01401E00FB0121E160214615
:109B10004FF0FF3001F8440F487004F110008DB190
:109B2000FFF7F9FC04F12400FFF7F5FCFFF746FD11
:109B3000012070BD502080F31188BFF34F8FBFF319
:109B40006F8FFEE721690029F0D000F0EFFA0028BE
:109B5000ECD004494FF080500860BFF34F8FBFF343
:109B60006F8FE3E704ED00E02DE9FF4782B01D466B
:109B70008A464FF00008040003D0BAF1000F08D065
:109B800011E0502080F31188BFF34F8FBFF36F8F28
:109B9000FEE7206C38B1502080F31188BFF34F8F5F
:109BA000BFF36F8FFEE7022D0AD1E06B012807D0CB
:109BB000502080F31188BFF34F8FBFF36F8FFEE704
:109BC00000F0F2F93F4F4FF000094FF0805648B9CE
:109BD000049838B1502080F31188BFF34F8FBFF342
:109BE0006F8FFEE7FFF7CAFCA06BE16B884207D3DB
:109BF000022D05D00498D0B1B8F1000F1AD01EE0A4
:109C00002A4651462046FFF76AF8616A19B104F105
:109C1000240000F08BFA20B13E60BFF34F8FBFF3FA
:109C20006F8FFFF7CBFC012006B0BDE8F087FFF790
:109C3000C5FC22E06846FFF7F5FD4FF00108FFF78D
:109C4000BDFCFFF769FEFFF799FC94F94400401C46
:109C500001D184F8449094F94500401C01D184F866
:109C60004590FFF7ABFC04A9684600F033F930B12A
:109C70002046FFF7C9FA00F093FA0020D4E7FFF777
:109C80007DFCA06BE16B884213D1FFF797FC04F1D8
:109C900010000499FFF7D4FD2046FFF7B5FA00F055
:109CA0007FFA00289ED13E60BFF34F8FBFF36F8FC6
:109CB00098E7FFF783FC2046FFF7A6FA00F070FA5A
:109CC00090E7000004ED00E02DE9F0471F469046C4
:109CD0008946040003D0B9F1000F08D011E05020EC
:109CE00080F31188BFF34F8FBFF36F8FFEE7206CB7
:109CF00038B1502080F31188BFF34F8FBFF36F8FBF
:109D0000FEE7022F0AD1E06B012807D0502080F334
:109D10001188BFF34F8FBFF36F8FFEE7FFF7A6FCED
:109D20005020EFF3118680F31188BFF34F8FBFF3FC
:109D30006F8FA06BE16B884206D3022F04D0002006
:109D400086F31188BDE8F08794F94550A06B3A4638
:109D500049462046FEF7C3FF681C06D07F2D14D06D
:109D60006D1C84F845500120EAE7606A0028FAD0AB
:109D700004F1240000F0DAF90028F4D0B8F1000F63
:109D8000F1D00121C8F80010EDE7502080F31188D0
:109D9000BFF34F8FBFF36F8FFEE700002DE9F7474A
:109DA000002683B08A46040003D0BAF1000F08D021
:109DB00011E0502080F31188BFF34F8FBFF36F8FF6
:109DC000FEE7206C38B1502080F31188BFF34F8F2D
:109DD000BFF36F8FFEE700F0E7F8DFF8F4804FF095
:109DE00000094FF0805748B9059838B1502080F3EA
:109DF0001188BFF34F8FBFF36F8FFEE7FFF7BEFBF6
:109E0000A56BC5B151462046FEF756FF6D1EA563F2
:109E1000206950B104F1100000F088F928B1C8F8A9
:109E20000070BFF34F8FBFF36F8FFFF7C7FB0120A9
:109E300006B0BDE8F087059808B11EB106E0FFF74F
:109E4000BDFB27E06846FFF7EDFC0126FFF7B6FBF8
:109E5000FFF762FDFFF792FB94F94400401C01D12B
:109E600084F8449094F94500401C01D184F8459051
:109E7000FFF7A4FB05A9684600F02CF8002820464F
:109E80000AD0FFF7C1F900F08BF92046FFF758F828
:109E90000028B3D00020CBE7FFF752F890B104F1CF
:109EA00024000599FFF7CCFC2046FFF7ADF900F040
:109EB00077F90028A2D1C8F80070BFF34F8FBFF325
:109EC0006F8F9BE72046FFF79FF900F069F995E750
:109ED00004ED00E02DE9F0410C46050014D0DCB1A2
:109EE000FFF74CFB194EF2686B682068D11A471CCB
:109EF0001AD02F68D6F820C00026674516D09342A6
:109F000014D8012526601BE0502080F31188BFF390
:109F10004F8FBFF36F8FFEE7502080F31188BFF3A0
:109F20004F8FBFF36F8FFEE7002509E0884205D908
:109F3000401A20602846FFF775FCF5E701252660EA
:109F4000FFF73CFB2846BDE8F081000050000020F0
:109F50002DE9FF5F8346DDE90E87994616468A465E
:109F60009000FFF787F905001AD05820FFF782F913
:109F7000040012D025630021CDE90241CDE900871C
:109F80004B46324651465846FEF740FF2046FEF704
:109F900003FE012004B0BDE8F09F2846FFF722FB36
:109FA0004FF0FF30F6E700000548416919B1406BFA
:109FB00018B1002070470120704702207047000050
:109FC000500000200148C068704700005000002089
:109FD0002DE9F0412F4C0026606B28B1A069401C90
:109FE000A0613046BDE8F081E5686D1CE56013D1E5
:109FF000A06B006838B1502080F31188BFF34F8FF9
:10A00000BFF36F8FFEE7A06BE16BA163E063206A93
:10A01000401C2062FFF77AF8A06ADFF87C80854256
:10A0200009D3A06B0068A0B1A06BC068C76878684E
:10A03000854211D2A0622068C06A00EB800158F806
:10A040002100012800D90126E0690028C9D0012695
:10A05000C7E74FF0FF30EDE7381DFFF749FAB86A60
:10A0600018B107F11800FFF743FAF96A01202269D5
:10A0700088401043206101EB810108EB8100391D0C
:10A08000FFF76FFAF86A2168C96A8842C9D30126C6
:10A09000C7E70000500000201802002070B504003F
:10A0A0004FF000013CD01F4D2868844207D050205B
:10A0B00080F31188BFF34F8FBFF36F8FFEE7E06C23
:10A0C00038B1401EE064A36CE26A9A4228D040B1E5
:10A0D00026E0502080F31188BFF34F8FBFF36F8FBE
:10A0E000FEE7201DFFF704FA012130B994F82C0097
:10A0F0002A6901FA00F082432A61A06CE062C0F193
:10A100000500A061E06A2A6981401143296106497E
:10A1100000EB800001EB8000211DFFF722FA0121F6
:10A12000084670BD50000020180200202DE9F041C3
:10A13000C068C468ACB104F118000746FFF7D8F94D
:10A14000154D686B0126A0B139461448FFF709FA8E
:10A15000E06A2968C96A88421CD90120EE61BDE81D
:10A16000F081502080F31188BFF34F8FBFF36F8FC2
:10A17000FEE7201DFFF7BCF9E16A2A6906FA01F043
:10A180001043286101EB810004498C3901EB800008
:10A19000211DDBE70020E2E750000020A4020020A0
:10A1A0002DE9F0472C4D00242746686B38B1FFF7A6
:10A1B000E5F9686B401E6863686B40B146E050206B
:10A1C00080F31188BFF34F8FBFF36F8FFEE7A9684D
:10A1D000224E0120D1B3A6F18C0980463068E8B147
:10A1E000F068C46804F11800FFF782F9201DFFF73A
:10A1F0007FF9E06A2A6908FA00F11143296100EB4E
:10A20000800109EB8100211DFFF7ABF9E06A2968A5
:10A21000C96A8842E2D3C5F81C80DFE70CB1FEF7BB
:10A2200075FFAC6944B14646FFF7D2FE00B1EE615E
:10A23000641EF9D10020A861E86938B108490127F6
:10A2400038070860BFF34F8FBFF36F8FFFF7B6F982
:10A250003846BDE8F087000050000020A40200202E
:10A2600004ED00E01CB5FEF7FFFC0D48006868B186
:10A270000B490220091DCDE9000100234FF4827231
:10A2800008A10A48FFF764FE002807D1502080F398
:10A290001188BFF34F8FBFF36F8FFEE71CBD000027
:10A2A00090000020546D722053766300E591000801
:10A2B000FEB51E4613460200089D4FF0000014D064
:10A2C000124C2768002F0FD0CDE900130292062907
:10A2D00015DAFFF769FE02284FF000030DD00022C7
:10A2E00069462068FFF740FCFEBD502080F31188CE
:10A2F000BFF34F8FBFF36F8FFEE72A46F0E70023CF
:10A30000324669463846FFF7DFFCFEBD900000206C
:10A3100030A3000800000020D0000000A48900083D
:10A3200000A40008D000002038AE0100B489000865
:10A33000007A030A0000000000000000010203048C
:10A3400006070809000000000000000000000000EF
:10A35000000000005F00000000000000000000009E
:10A3600000000000000000000000000000000000ED
:10A3700000000000010203040102030406070809AB
:10A3800000000000000000000000000000000000CD
:10A3900000000000000000000000000000000000BD
:10A3A00000000000000000000000000000000000AD
:10A3B0000400000000000000000000000000000099
:10A3C000000000000000000000000000000000008D
:10A3D000000000000000000000000000000000007D
:10A3E000000000000000000000000000000000006D
:10A3F0000000000000000000AAAAAAAA00000000B5
:0400000508008189E5
:00000001FF
