:020000040800F2
:10000000880C002049020008A1080008E907000840
:100010009D08000855050008F70E000800000000C4
:100020000000000000000000000000009D0B000820
:10003000590500080000000031090008B50C00084F
:1000400063020008630200086302000863020008FC
:1000500063020008630200086302000863020008EC
:1000600063020008630200086302000863020008DC
:1000700063020008630200086302000863020008CC
:1000800063020008630200086302000863020008BC
:1000900063020008630200086302000863020008AC
:1000A000630200086302000863020008630200089C
:1000B000630200086302000863020008630200088C
:1000C000630200086302000863020008630200087C
:1000D00063020008210D00086302000863020008A3
:1000E000630200086302000863020008630200085C
:1000F000630200086302000863020008630200084C
:10010000630200086302000863020008630200083B
:10011000630200086302000863020008630200082B
:10012000630200086302000863020008630200081B
:10013000630200086302000863020008630200080B
:1001400063020008630200086302000863020008FB
:1001500063020008630200086302000863020008EB
:1001600063020008630200086302000863020008DB
:1001700063020008630200086302000863020008CB
:10018000630200086302000800F002F800F044F87F
:100190000AA090E8000C82448344AAF10107DA45E2
:1001A00001D100F039F8AFF2090EBAE80F0013F0F0
:1001B000010F18BFFB1A43F0010318475416000043
:1001C00074160000103A24BF78C878C1FAD85207D4
:1001D00024BF30C830C144BF04680C6070470000C1
:1001E0000023002400250026103A28BF78C1FBD840
:1001F000520728BF30C148BF0B607047642900F028
:100200008380782900F0BC80002070471FB501F082
:10021000E5F81FBD10B510BD00F06AF91146FFF7F3
:10022000F5FF00F03BFF00F088F903B4FFF7F2FFA1
:1002300003BC00F062FE000030BF72B6704762B6C9
:10024000704780F30888704709488047094800478D
:10025000FEE7FEE7FEE7FEE7FEE7FEE7FEE7FEE776
:10026000FEE7FEE704480549034A054B70470000D6
:10027000B90C00088901000888080020880C0020BB
:1002800088080020704700000FB4044910B503AA85
:10029000029800F0FFF810BC5DF814FB0800002085
:1002A0002DE9F0410E460446002020622046E16818
:1002B000884730B3252805D0D4E901219047206A2A
:1002C000401CF2E7E168204600278847050018D067
:1002D000A5F14100192802D820354FF400673246B5
:1002E000294620462760FFF789FF40B1012804D046
:1002F000F61D26F007060836D8E7361DD6E728464D
:10030000DAE7206ABDE8F0812DE9F04106460024D5
:1003100010687529314616A510D0AFF3008000286B
:1003200002DA404213A507E031688A0701D512A519
:1003300002E0490704D511A5012401E0AFF30080D4
:1003400000210A2206F1240709E0B0FBF2FCB0FB11
:10035000F2F302FB1C00303078541846491C002888
:10036000F3D123462A463046BDE8F04100F038B8C4
:10037000000000002D0000002B0000002000000005
:1003800070B504460D4621461068AFF30080218801
:10039000090502D50F4A7A4402E00E4A7A440E3229
:1003A000002104F1240305E000F00F060009965D2A
:1003B0005E54491C0028F7D120780023000704D59B
:1003C000702D02D009B1022311322046BDE87040E1
:1003D00000F006B84E140000704770477047704731
:1003E0002DE9F0470D4699469246044600F124084F
:1003F0000168880604D5E06921F01001216000E061
:100400000120A84201DD471B00E00027A1697A19FD
:1004100002EB0900081AA0612078C00602D4204629
:10042000AFF30080002608E0D4E901211AF80600A5
:100430009047206A401C761C20624E45F4DB2078F1
:10044000C0060AD52046AFF3008006E0D4E90121BA
:1004500030209047206A401C2062381EA7F1010717
:10046000F4DC07E0D4E9012118F805009047206A80
:10047000401C2062281EA5F10105F3DC2046AFF3E5
:1004800000802078000602D50220BDE8F087012018
:10049000FBE70000074B70B50D467B4400F011F8F8
:1004A0000446284600F020F810B14FF0FF3070BD30
:1004B000204670BD4F0B000001694A1C026108789C
:1004C000704700B58FB0CDE9013100210591054994
:1004D0007944CDE9031011466846FFF7E1FE0FB0FD
:1004E00000BD0000E5FFFFFF007B00F080007047CB
:1004F000754600F02BF8AE4605006946534620F0DD
:100500000700854618B020B5FFF7ACFEBDE82040D7
:100510004FF000064FF000074FF000084FF0000BBF
:1005200021F00701AC46ACE8C009ACE8C009ACE872
:10053000C009ACE8C0098D46704710B50446AFF35A
:1005400000802046BDE81040FFF76FBE00487047AE
:100550002808002000BFFEE77047000030B10749BF
:10056000096841F48061054A116005E003490968A2
:1005700021F48061014A116070470000003C024094
:1005800070B504460A460026092502B909E0012A89
:1005900001D1160205E0022A01D1160201E04FF452
:1005A000407600F09FF80546092D28D115480068CF
:1005B00020F4407013490860084600683043086022
:1005C0000846006820F0F80008600846006844F01B
:1005D000020108430B4908600846006840F4803077
:1005E000086000F07FF805460648006820F0020029
:1005F000044908600846006820F0F80008602846B2
:1006000070BD0000103C024009201349096801F444
:100610008031B1F5803F01D101201CE00E4909680D
:1006200001F0100109B1062015E00B49096801F439
:10063000807109B102200EE00749096801F0EF015D
:1006400009B1072007E00449096801F0020109B176
:10065000082000E0092070470C3C02400348006875
:1006600040F000400149086070470000103C024023
:1006700030B502460C46092500F034F80546092D30
:1006800019D10E48006820F440700C4908600846F3
:10069000006840F4007008600846006840F00100FF
:1006A0000860146000F01EF805460448006820F059
:1006B000010002490860284630BD0000103C02409D
:1006C0000548006800F0004028B1044802490C3990
:1006D0000860034808607047103C024023016745EA
:1006E000AB89EFCD08B509200090FFF78DFF009092
:1006F00002E0FFF789FF00909DF800000128F8D084
:100700009DF8000008BDF0B50A4600210023002432
:1007100000BF3DE0012505FA01F3156805EA030471
:100720009C4234D105684F000326BE40B5430560A6
:1007300015794E00B5400668354305601579012DE1
:1007400002D01579022D16D185684F000326BE40D0
:10075000B543856055794E00B54086683543856060
:10076000456801268E40B5434560456896798E40C0
:10077000B6B235434560C5684F000326BE40B54359
:10078000C560D5794E00B540C6683543C560491C83
:100790001029BFD3F0BDF0B5002300244D07ED0EA6
:1007A00002FA05F3CE1000F1200555F826504E0749
:1007B000F70E0F26BE40B543CF1000F1200646F8D5
:1007C0002750CE1000F1200555F8265045EA0304C5
:1007D000CE1000F1200545F82640F0BD018370479A
:1007E00042694A404261704700BFFEE770B5054666
:1007F0000C4645F2555000F02BF8284600F01CF846
:10080000204600F01FF800F00FF800F001F870BD6E
:100810004CF6CC40014908607047000000300040B1
:1008200010B500F001F810BD4AF6AA200149086091
:1008300070470000003000400149486070470000E8
:1008400000300040014988607047000000300040DF
:100850000149086070470000003000401CB50121CC
:10086000042000F067F84FF40050009001208DF84C
:10087000040000208DF8060003208DF805000120FB
:100880008DF8070069460448FFF73DFF4FF400511B
:100890000148FFF7A3FF1CBD0008024000BFFEE7B0
:1008A0007047000070B5002100230F22C4781CB3EC
:1008B000174C246804F4E064C4F5E064C4F3072131
:1008C000C1F10404E3B20A4144789C40E1B2847867
:1008D000144021430C07210E0E4C05786155047815
:1008E00004F01F050124AC4005786D11AD0005F141
:1008F000E025C5F8004109E0047804F01F05012453
:10090000AC40054D0678761145F8264070BD0000D4
:100910000CED00E000E400E080E100E0024901436A
:10092000024A1160704700000000FA050CED00E07B
:100930007047000029B1064A12680243044B1A604E
:1009400004E0034A12688243014B1A6070470000BA
:100950003038024029B1064A12680243044B1A603B
:1009600004E0034A12688243014B1A60704700009A
:1009700044380240F0B50021002200240225002660
:100980000223324F3F6807F00C0121B1042905D042
:10099000082937D105E02E4F076036E02D4F07605C
:1009A00033E02A4F3F1F3F68C7F38056274F3F1F52
:1009B0003F6807F03F036EB1264FB7FBF3F7DFF850
:1009C0008CC0ACF1040CDCF800C0CCF3881C07FB35
:1009D0000CF40CE01E4FB7FBF3F7DFF870C0ACF17E
:1009E000040CDCF800C0CCF3881C07FB0CF4174F98
:1009F0003F1F3F68C7F301477F1C7D00B4FBF5F73D
:100A0000076002E0124F076000BF00BF0F4F3F6852
:100A100007F0F0010909104F7A5C0768D74047607A
:100A20000A4F3F6807F4E051890A0B4F7A5C476828
:100A3000D7408760054F3F6807F46041490B064F78
:100A40007A5C4768D740C760F0BD000008380240B4
:100A50000024F40000127A001400002001461C4813
:100A6000814201D2002070471A48814201D20820F9
:100A7000F9E71948814201D21020F4E71748814272
:100A800001D21820EFE71648814201D22020EAE780
:100A90001448814201D22820E5E71348814201D25F
:100AA0003020E0E71148814201D23820DBE71048CE
:100AB000814201D24020D6E70E48814201D248202F
:100AC000D1E70D48814201D25020CCE75820CAE737
:100AD000004000080080000800C000080000010875
:100AE00000000208000004080000060800000808D2
:100AF00000000A0800000C0800000E080146086803
:100B0000704700002DE9F04704460E4617464FF0A7
:100B100009080025A946B4F1006F02D304F00300D0
:100B200008B1BDE8F087FFF7CBFD0020FFF716FD09
:100B3000254604EB87091848854215D211E028465E
:100B4000FFF7DCFF401C58B12846FFF787FF8246BD
:100B50000221FFF715FD8046B8F1090F01D002E030
:100B60002D1D4D45EBD300BFB8F1090F0CD108E0A6
:100B700020463168FFF77CFD092800D003E0241DE2
:100B8000361D4C45F4D300BF0120FFF7E7FCFFF70B
:100B900065FD00BFC5E700000000FF1F70470000B3
:100BA0000CB50020019000903448006840F480307B
:100BB0003249086000BF3148006800F400300090FE
:100BC0000198401C0190009818B90198B0F5A04F09
:100BD000F1D12A48006800F4003010B101200090E3
:100BE00001E0002000900098012846D123484030C1
:100BF000006840F08050214940310860204800687A
:100C000040F440401E4908601C48083000681B49F9
:100C1000083108600846006840F400400860084653
:100C2000006840F4A05008601648091F0860081FBB
:100C3000006840F08070091F086000BF0F4800681E
:100C400000F000700028F9D040F205700E490860ED
:100C50000A480830006820F003000849083108609D
:100C60000846006840F00200086000BF03480830F2
:100C7000006800F00C000828F8D10CBD00380240D4
:100C80000070004008544007003C0240042808D18E
:100C90004FF0E021096941F004014FF0E0221161B9
:100CA00007E04FF0E021096921F004014FF0E02254
:100CB000116170477047000010B51548006840F496
:100CC0007000134908601348006840F001001149A2
:100CD000086000200F49083108600E4800680E497E
:100CE00008400C4908600D48091D0860081F00688D
:100CF00020F48020091F0860002006490C3108609C
:100D0000FFF74EFF4FF0006001498039086010BDC9
:100D100088ED00E000380240FFFFF6FE10300024AE
:100D200010B540F225510B4800F026F888B109486B
:100D300000F0DCF8C4B208480068B0F5F03F08D213
:100D4000064805490968445403480068401C0249A4
:100D5000086010BD001001401000002000100020AD
:100D600021B1828942F40052828104E082894DF6E9
:100D7000FF731A408281704770B502460024002339
:100D80000025002040F66A16B14200D100BFC1F331
:100D9000421501F01F03012606FA03F3012D02D1CB
:100DA0009689334006E0022D02D1168A334001E0D5
:100DB000968A33400C12012606FA04F41688344051
:100DC00013B10CB1012000E0002070BDF0B5034666
:100DD000002400260025002040F66A17B94200D101
:100DE00000BF1846C1F3421401F01F06012707FA9D
:100DF00006F5012C01D10C3004E0022C01D1103099
:100E000000E014301AB107682F43076002E007685A
:100E1000AF430760F0BD00002DE9FF4705460E46D1
:100E20000024A14600BFA046B08900B100BF2C8AB3
:100E300024F44054F08804432C82AC8941F20C60C5
:100E40008443B08831890843718908430443AC81E5
:100E5000AC8A24F44074B0890443AC826846FFF73E
:100E600089FD2048854202D01F48854202D1DDF825
:100E70000C9001E0DDF80890A88900F4004040B132
:100E800009EBC90000EB091031684900B0FBF1F72C
:100E900007E009EBC90000EB091031688900B0FBDD
:100EA000F1F76420B7FBF0F004012009642101FB95
:100EB0001078A88900F4004040B1322000EBC8004F
:100EC000B0FBF1F000F00700044308E0322000EB33
:100ED00008106421B0FBF1F000F00F0004432C81F6
:100EE000BDE8FF87001001400014014001468888DA
:100EF000C0F30800704700BFFEE7014600BF70471F
:100F000030B503460C464FF0FF32002108E0585C34
:100F10005040C0B2044D55F8200080EA1222491C0E
:100F2000A142F4D3D04330BDE813000810B5044605
:100F30006FF00400FFF7AAFEE11704EB5171C1F353
:100F4000C701074A11701046007800EB4001C1EB61
:100F5000C0104FF6FF7101EAC0000249088010BDC1
:100F6000040000200600002070B504464FF407700E
:100F700094FBF0F0C6B24FF4077094FBF0F100FB65
:100F8000114085B205E04FF4077000F009F8701EBB
:100F9000C6B2002EF7D115B1284600F001F870BD99
:100FA0000146114A12884A434FF0E0235A61002259
:100FB0009A611A46126942F001021A6100BF4FF0AD
:100FC000E022106900F001021AB100F48032002A18
:100FD000F5D04FF0E022126922F001024FF0E02339
:100FE0001A6100229A6170470600002000BF054A7E
:100FF000128802F04002002AF9D0C2B2014B9A8056
:10100000704700000010014010B5044620680749F1
:101010000840B0F1005F08D16068054908602068A9
:10102000FFF70FF902480068804710BD0000FE2F4F
:10103000240000202DE9F05F0746884691460025F0
:10104000BB464446AA461DE0E0780606A07846EA7C
:101050000046607846EA002620780643241D28468C
:10106000691C8DB20C4941F82060B5F5007F07D1AD
:1010700000254FF400725846FFF744FD0BF5006B56
:101080000AF1040ACA45DFD325B12A460249584667
:10109000FFF738FDBDE8F09F28000020002600275C
:1010A00000254FF4A060FFF739FCA820FFF73EFFB2
:1010B0004FF4E13000F03CF9FFF7D0FB40F245116E
:1010C0000420FFF793FB49A0FFF7DEF88CE0FFF761
:1010D000A7FB4FF400514D48FFF782FB4C480068D6
:1010E00000284ED04A480068874247D148480088C7
:1010F00085B2002700204649086046A0FFF7C4F8E3
:10110000294649A0FFF7C0F84C48007F01064B482C
:10111000407F01EB00414948807F01EB00204749B7
:10112000C97F084446490860002405E0002104F115
:101130001C00424A1154641C042CF7D329463F4832
:10114000FFF7DEFE3E49096888420CD10126294698
:101150003A48FFF7D5FE804642463948016839A033
:10116000FFF792F80DE03DA0FFF78EF844A0FFF7DF
:101170008BF8002026490860002602E024480088F9
:1011800087B24620FFF7F0FE002E2DD0002D28D08C
:1011900043A0FFF779F84748406800F07F40B0F17E
:1011A000006F1AD12A4625494348FFF743FF43A061
:1011B000FFF76AF845A0FFF767F83F48406800F07E
:1011C0007F40B0F1006F04D13B48FFF71DFF0026C0
:1011D0000AE045A0FFF758F806E04AA0FFF754F8E8
:1011E00002E04DA0FFF750F871E700002A2A2A2AF2
:1011F0002AB5C8B4FDBDD3CADC62696ECEC4BCFEDC
:10120000212A2A2A2A2A210D0A0000000008024069
:1012100010000020D3C3BBA7B3CCD0F2BDD3CAD536
:10122000CDEAB3C9210D0A00B4FAC2EBB3A4B6C823
:101230003A256442797465730D0A0000001000209D
:101240000000002025782C25780D0A435243D0A3B6
:10125000D1E9B3C9B9A6A3A10D0A00004352433393
:1012600032206661696CA3A10D0AC7EBD6D8D0C243
:10127000CFC2D4D8B3CCD0F2A3A10D0A0000000095
:101280002A2A2A2A2AB5C8B4FDBDD3CADC62696EEF
:10129000CEC4BCFE212A2A2A2A2A0D0A00000000F8
:1012A000BFAACABCB8FCD0C2B9CCBCFE2E2E2E0D33
:1012B0000A0000000010002000800008B9CCBCFE2D
:1012C000B8FCD0C2CDEAB3C9210D0A00BFAACABC7E
:1012D000D6B4D0D0464C415348D3C3BBA7B4FAC20E
:1012E000EB21210D0A000000B7C7464C415348D3FB
:1012F000A6D3C3B3CCD0F22CCEDEB7A8D6B4D0D010
:10130000210D0A00B7C7464C415348D3A6D3C3B3F7
:10131000CCD0F2210D0A0000C3BBD3D0BFC9D2D4B8
:10132000B8FCD0C2B5C4B9CCBCFE210D0A00000087
:1013300010B588B0044601210846FFF7FBFA0121E9
:101340001020FFF707FB072209212248FFF723FAA5
:1013500007220A211F48FFF71EFA4FF4C0600690CB
:1013600002208DF81C008DF81D0000208DF81E0055
:1013700001208DF81F0006A91648FFF7C4F9029452
:101380000020ADF80C00ADF80E00ADF81000ADF87F
:1013900014000C20ADF8120002A90F48FFF73CFD25
:1013A00001210D48FFF7DCFC012240F225510A48DB
:1013B000FFF70CFD25208DF8040003208DF80500B3
:1013C0008DF8060001208DF8070001A8FFF76AFAE2
:1013D00008B010BD00000240001001404FF0407006
:1013E000E1EE100A70470000000000009630077719
:1013F0002C610EEEBA51099919C46D078FF46A7009
:1014000035A563E9A395649E3288DB0EA4B8DC7928
:101410001EE9D5E088D9D2972B4CB609BD7CB17EA8
:10142000072DB8E7911DBF906410B71DF220B06A78
:101430004871B9F3DE41BE847DD4DA1AEBE4DD6D88
:1014400051B5D4F4C785D38356986C13C0A86B6488
:101450007AF962FDECC9658A4F5C0114D96C0663A8
:10146000633D0FFAF50D088DC8206E3B5E10694C88
:10147000E44160D5727167A2D1E4033C47D4044BC8
:10148000FD850DD26BB50AA5FAA8B5356C98B242A8
:10149000D6C9BBDB40F9BCACE36CD832755CDF4528
:1014A000CF0DD6DC593DD1ABAC30D9263A00DE5158
:1014B0008051D7C81661D0BFB5F4B42123C4B35648
:1014C0009995BACF0FA5BDB89EB802280888055FC8
:1014D000B2D90CC624E90BB1877C6F2F114C685828
:1014E000AB1D61C13D2D66B69041DC760671DB0116
:1014F000BC20D2982A10D5EF8985B1711FB5B606E8
:10150000A5E4BF9F33D4B8E8A2C9077834F9000F27
:101510008EA8099618980EE1BB0D6A7F2D3D6D08C7
:10152000976C6491015C63E6F4516B6B62616C1CB7
:10153000D83065854E0062F2ED95066C7BA5011BE7
:10154000C1F4088257C40FF5C6D9B06550E9B71287
:10155000EAB8BE8B7C88B9FCDF1DDD62492DDA1547
:10156000F37CD38C654CD4FB5861B24DCE51B53A67
:101570007400BCA3E230BBD441A5DF4AD795D83D67
:101580006DC4D1A4FBF4D6D36AE96943FCD96E34A7
:10159000468867ADD0B860DA732D0444E51D033387
:1015A0005F4C0AAAC97C0DDD3C710550AA41022797
:1015B00010100BBE86200CC925B56857B3856F2067
:1015C00009D466B99FE461CE0EF9DE5E98C9D929C7
:1015D0002298D0B0B4A8D7C7173DB359810DB42E07
:1015E0003B5CBDB7AD6CBAC02083B8EDB6B3BF9A53
:1015F0000CE2B6039AD2B1743947D5EAAF77D29DDF
:101600001526DB048316DC73120B63E3843B6494BE
:101610003E6A6D0DA85A6A7A0BCF0EE49DFF0993BE
:1016200027AE000AB19E077D44930FF0D2A308872E
:1016300068F2011EFEC206695D5762F7CB676580DE
:1016400071366C19E7066B6E761BD4FEE02BD389DE
:101650005A7ADA10CC4ADD676FDFB9F9F9EFBE8E3E
:1016600043BEB717D58EB060E8A3D6D67E93D1A17E
:10167000C4C2D83852F2DF4FF167BBD16757BCA65E
:10168000DD06B53F4B36B248DA2B0DD84C1B0AAFFE
:10169000F64A0336607A0441C3EF60DF55DF67A87E
:1016A000EF8E6E3179BE69468CB361CB1A8366BC0E
:1016B000A0D26F2536E2685295770CCC03470BBB5E
:1016C000B91602222F260555BE3BBAC5280BBDB25E
:1016D000925AB42B046AB35CA7FFD7C231CFD0B5FE
:1016E0008B9ED92C1DAEDE5BB0C2649B26F263ECF0
:1016F0009CA36A750A936D02A906099C3F360EEBFE
:101700008567077213570005824ABF95147AB8E2BD
:10171000AE2BB17B381BB60C9B8ED2920DBED5E59D
:10172000B7EFDC7C21DFDB0BD4D2D38642E2D4F1ED
:10173000F8B3DD686E83DA1FCD16BE815B26B9F67D
:10174000E177B06F7747B718E65A0888706A0FFFDD
:10175000CA3B06665C0B0111FF9E658F69AE62F89D
:10176000D3FF6B6145CF6C1678E20AA0EED20DD79D
:101770005483044EC2B30339612667A7F71660D0BD
:101780004D476949DB776E3E4A6AD1AEDC5AD6D9FD
:10179000660BDF40F03BD83753AEBCA9C59EBBDE1D
:1017A0007FCFB247E9FFB5301CF2BDBD8AC2BACACD
:1017B0003093B353A6A3B4240536D0BA9306D7CD3D
:1017C0002957DE54BF67D9232E7A66B3B84A61C45D
:1017D000021B685D942B6F2A37BE0BB4A18E0CC31D
:1017E0001BDF055A8DEF022D303132333435363759
:1017F0003839414243444546403058003031323355
:101800003435363738396162636465664030780054
:10181000301800080000002028000000C401000863
:101820005818000828000020D8EF0100E001000847
:1018300000000000000000000000000000000000A8
:101840000000000000000000010203040102030484
:08185000060708090000000072
:040000050800018965
:00000001FF
